{
  "_format": "hh-sol-artifact-1",
  "contractName": "DePoker2",
  "sourceName": "blockchain/contracts/DePoker2.sol",
  "abi": [
    {
      "anonymous": false,
      "inputs": [
        {
          "indexed": true,
          "internalType": "uint256",
          "name": "roomId",
          "type": "uint256"
        },
        {
          "indexed": true,
          "internalType": "address",
          "name": "player",
          "type": "address"
        },
        {
          "indexed": false,
          "internalType": "uint256",
          "name": "buyIn",
          "type": "uint256"
        }
      ],
      "name": "PlayerJoined",
      "type": "event"
    },
    {
      "anonymous": false,
      "inputs": [
        {
          "indexed": true,
          "internalType": "uint256",
          "name": "roomId",
          "type": "uint256"
        },
        {
          "indexed": true,
          "internalType": "address",
          "name": "creator",
          "type": "address"
        },
        {
          "indexed": false,
          "internalType": "uint256",
          "name": "buyIn",
          "type": "uint256"
        }
      ],
      "name": "RoomCreated",
      "type": "event"
    },
    {
      "anonymous": false,
      "inputs": [
        {
          "indexed": true,
          "internalType": "uint256",
          "name": "roomId",
          "type": "uint256"
        },
        {
          "indexed": true,
          "internalType": "address",
          "name": "winner",
          "type": "address"
        },
        {
          "indexed": false,
          "internalType": "uint256",
          "name": "totalPayout",
          "type": "uint256"
        }
      ],
      "name": "RoomFinalized",
      "type": "event"
    },
    {
      "anonymous": false,
      "inputs": [
        {
          "indexed": true,
          "internalType": "uint256",
          "name": "roomId",
          "type": "uint256"
        }
      ],
      "name": "RoomStarted",
      "type": "event"
    },
    {
      "anonymous": false,
      "inputs": [
        {
          "indexed": true,
          "internalType": "uint256",
          "name": "roomId",
          "type": "uint256"
        },
        {
          "indexed": true,
          "internalType": "address",
          "name": "voter",
          "type": "address"
        },
        {
          "indexed": true,
          "internalType": "address",
          "name": "candidate",
          "type": "address"
        }
      ],
      "name": "VoteCast",
      "type": "event"
    },
    {
      "stateMutability": "payable",
      "type": "fallback"
    },
    {
      "inputs": [],
      "name": "MIN_REPUTATION_TO_JOIN",
      "outputs": [
        {
          "internalType": "int256",
          "name": "",
          "type": "int256"
        }
      ],
      "stateMutability": "view",
      "type": "function"
    },
    {
      "inputs": [
        {
          "internalType": "address",
          "name": "",
          "type": "address"
        }
      ],
      "name": "consecutiveWrongVotes",
      "outputs": [
        {
          "internalType": "uint8",
          "name": "",
          "type": "uint8"
        }
      ],
      "stateMutability": "view",
      "type": "function"
    },
    {
      "inputs": [
        {
          "internalType": "uint256",
          "name": "buyIn",
          "type": "uint256"
        }
      ],
      "name": "createRoom",
      "outputs": [
        {
          "internalType": "uint256",
          "name": "roomId",
          "type": "uint256"
        }
      ],
      "stateMutability": "nonpayable",
      "type": "function"
    },
    {
      "inputs": [
        {
          "internalType": "uint256",
          "name": "roomId",
          "type": "uint256"
        },
        {
          "internalType": "address",
          "name": "declaredWinner",
          "type": "address"
        }
      ],
      "name": "finalize",
      "outputs": [],
      "stateMutability": "nonpayable",
      "type": "function"
    },
    {
      "inputs": [
        {
          "internalType": "address",
          "name": "player",
          "type": "address"
        }
      ],
      "name": "getReputation",
      "outputs": [
        {
          "internalType": "int256",
          "name": "",
          "type": "int256"
        }
      ],
      "stateMutability": "view",
      "type": "function"
    },
    {
      "inputs": [
        {
          "internalType": "uint256",
          "name": "roomId",
          "type": "uint256"
        }
      ],
      "name": "getRoom",
      "outputs": [
        {
          "internalType": "address",
          "name": "creator",
          "type": "address"
        },
        {
          "internalType": "uint256",
          "name": "buyIn",
          "type": "uint256"
        },
        {
          "internalType": "uint256",
          "name": "playerCount",
          "type": "uint256"
        },
        {
          "internalType": "uint256",
          "name": "totalPool",
          "type": "uint256"
        },
        {
          "internalType": "uint256",
          "name": "totalVotes",
          "type": "uint256"
        },
        {
          "internalType": "bool",
          "name": "started",
          "type": "bool"
        },
        {
          "internalType": "bool",
          "name": "settled",
          "type": "bool"
        },
        {
          "internalType": "address",
          "name": "winner",
          "type": "address"
        }
      ],
      "stateMutability": "view",
      "type": "function"
    },
    {
      "inputs": [
        {
          "internalType": "uint256",
          "name": "roomId",
          "type": "uint256"
        }
      ],
      "name": "joinRoom",
      "outputs": [],
      "stateMutability": "payable",
      "type": "function"
    },
    {
      "inputs": [],
      "name": "nextRoomId",
      "outputs": [
        {
          "internalType": "uint256",
          "name": "",
          "type": "uint256"
        }
      ],
      "stateMutability": "view",
      "type": "function"
    },
    {
      "inputs": [
        {
          "internalType": "address",
          "name": "",
          "type": "address"
        }
      ],
      "name": "reputation",
      "outputs": [
        {
          "internalType": "int256",
          "name": "",
          "type": "int256"
        }
      ],
      "stateMutability": "view",
      "type": "function"
    },
    {
      "inputs": [
        {
          "internalType": "uint256",
          "name": "roomId",
          "type": "uint256"
        }
      ],
      "name": "startRoom",
      "outputs": [],
      "stateMutability": "nonpayable",
      "type": "function"
    },
    {
      "inputs": [
        {
          "internalType": "uint256",
          "name": "roomId",
          "type": "uint256"
        },
        {
          "internalType": "address",
          "name": "candidate",
          "type": "address"
        }
      ],
      "name": "voteWinner",
      "outputs": [],
      "stateMutability": "nonpayable",
      "type": "function"
    },
    {
      "stateMutability": "payable",
      "type": "receive"
    }
  ],
  "bytecode": "0x6080604052348015600f57600080fd5b5061274d8061001f6000396000f3fe6080604052600436106100a05760003560e01c80639cfc4b45116100645780639cfc4b4514610219578063b050497c14610235578063b9f794511461025e578063bbba82571461029b578063c807fd7a146102d8578063d43b7c5d14610315576100e0565b806307a52cab1461011b578063510254c1146101465780636d8a74cb1461016f57806379fb2b72146101b35780639c89a0e2146101dc576100e0565b366100e0576040517f08c379a00000000000000000000000000000000000000000000000000000000081526004016100d790611a41565b60405180910390fd5b6040517f08c379a000000000000000000000000000000000000000000000000000000000815260040161011290611aad565b60405180910390fd5b34801561012757600080fd5b50610130610340565b60405161013d9190611ae6565b60405180910390f35b34801561015257600080fd5b5061016d60048036038101906101689190611b90565b610346565b005b34801561017b57600080fd5b5061019660048036038101906101919190611bd0565b610858565b6040516101aa989796959493929190611c27565b60405180910390f35b3480156101bf57600080fd5b506101da60048036038101906101d59190611bd0565b610918565b005b3480156101e857600080fd5b5061020360048036038101906101fe9190611ca5565b610b8d565b6040516102109190611ceb565b60405180910390f35b610233600480360381019061022e9190611bd0565b610bd6565b005b34801561024157600080fd5b5061025c60048036038101906102579190611b90565b610fe3565b005b34801561026a57600080fd5b5061028560048036038101906102809190611ca5565b611489565b6040516102929190611ceb565b60405180910390f35b3480156102a757600080fd5b506102c260048036038101906102bd9190611bd0565b6114a1565b6040516102cf9190611ae6565b60405180910390f35b3480156102e457600080fd5b506102ff60048036038101906102fa9190611ca5565b6115ba565b60405161030c9190611d22565b60405180910390f35b34801561032157600080fd5b5061032a6115da565b6040516103379190611ceb565b60405180910390f35b60015481565b60008060008481526020019081526020016000209050600073ffffffffffffffffffffffffffffffffffffffff168160000160009054906101000a900473ffffffffffffffffffffffffffffffffffffffff1673ffffffffffffffffffffffffffffffffffffffff16036103ef576040517f08c379a00000000000000000000000000000000000000000000000000000000081526004016103e690611d89565b60405180910390fd5b8060000160009054906101000a900473ffffffffffffffffffffffffffffffffffffffff1673ffffffffffffffffffffffffffffffffffffffff163373ffffffffffffffffffffffffffffffffffffffff1614610481576040517f08c379a000000000000000000000000000000000000000000000000000000000815260040161047890611df5565b60405180910390fd5b8060050160009054906101000a900460ff166104d2576040517f08c379a00000000000000000000000000000000000000000000000000000000081526004016104c990611e61565b60405180910390fd5b8060050160019054906101000a900460ff1615610524576040517f08c379a000000000000000000000000000000000000000000000000000000000815260040161051b90611ecd565b60405180910390fd5b600081600201541161056b576040517f08c379a000000000000000000000000000000000000000000000000000000000815260040161056290611f39565b60405180910390fd5b8060070160008373ffffffffffffffffffffffffffffffffffffffff1673ffffffffffffffffffffffffffffffffffffffff16815260200190815260200160002060009054906101000a900460ff166105f9576040517f08c379a00000000000000000000000000000000000000000000000000000000081526004016105f090611fa5565b60405180910390fd5b6000816004015411610640576040517f08c379a000000000000000000000000000000000000000000000000000000000815260040161063790612011565b60405180910390fd5b600081600a0160008473ffffffffffffffffffffffffffffffffffffffff1673ffffffffffffffffffffffffffffffffffffffff16815260200190815260200160002054905081600401546002826106989190612060565b116106d8576040517f08c379a00000000000000000000000000000000000000000000000000000000081526004016106cf906120ee565b60405180910390fd5b600082600301549050838360050160026101000a81548173ffffffffffffffffffffffffffffffffffffffff021916908373ffffffffffffffffffffffffffffffffffffffff16021790555060018360050160016101000a81548160ff0219169083151502179055506000836003018190555061075583856115fe565b60008473ffffffffffffffffffffffffffffffffffffffff168260405161077b9061213f565b60006040518083038185875af1925050503d80600081146107b8576040519150601f19603f3d011682016040523d82523d6000602084013e6107bd565b606091505b5050905080610801576040517f08c379a00000000000000000000000000000000000000000000000000000000081526004016107f8906121a0565b60405180910390fd5b8473ffffffffffffffffffffffffffffffffffffffff16867fb83caa00d6306b552b3a99adc587bcf5299ea4f7ba9853312d62605e833dfc71846040516108489190611ae6565b60405180910390a3505050505050565b60008060008060008060008060008060008b815260200190815260200160002090508060000160009054906101000a900473ffffffffffffffffffffffffffffffffffffffff1681600101548260020154836003015484600401548560050160009054906101000a900460ff168660050160019054906101000a900460ff168760050160029054906101000a900473ffffffffffffffffffffffffffffffffffffffff169850985098509850985098509850985050919395975091939597565b60008060008381526020019081526020016000209050600073ffffffffffffffffffffffffffffffffffffffff168160000160009054906101000a900473ffffffffffffffffffffffffffffffffffffffff1673ffffffffffffffffffffffffffffffffffffffff16036109c1576040517f08c379a00000000000000000000000000000000000000000000000000000000081526004016109b890611d89565b60405180910390fd5b8060000160009054906101000a900473ffffffffffffffffffffffffffffffffffffffff1673ffffffffffffffffffffffffffffffffffffffff163373ffffffffffffffffffffffffffffffffffffffff1614610a53576040517f08c379a0000000000000000000000000000000000000000000000000000000008152600401610a4a9061220c565b60405180910390fd5b8060050160009054906101000a900460ff1615610aa5576040517f08c379a0000000000000000000000000000000000000000000000000000000008152600401610a9c90612278565b60405180910390fd5b8060050160019054906101000a900460ff1615610af7576040517f08c379a0000000000000000000000000000000000000000000000000000000008152600401610aee90611ecd565b60405180910390fd5b600281600201541015610b3f576040517f08c379a0000000000000000000000000000000000000000000000000000000008152600401610b36906122e4565b60405180910390fd5b60018160050160006101000a81548160ff021916908315150217905550817fe59ac6791852e6000e17600aff77fb211aeb32a543fb6cfe13f2ab6a33cb312c60405160405180910390a25050565b6000600260008373ffffffffffffffffffffffffffffffffffffffff1673ffffffffffffffffffffffffffffffffffffffff168152602001908152602001600020549050919050565b60008060008381526020019081526020016000209050600073ffffffffffffffffffffffffffffffffffffffff168160000160009054906101000a900473ffffffffffffffffffffffffffffffffffffffff1673ffffffffffffffffffffffffffffffffffffffff1603610c7f576040517f08c379a0000000000000000000000000000000000000000000000000000000008152600401610c7690611d89565b60405180910390fd5b8060050160009054906101000a900460ff1615610cd1576040517f08c379a0000000000000000000000000000000000000000000000000000000008152600401610cc890612278565b60405180910390fd5b8060050160019054906101000a900460ff1615610d23576040517f08c379a0000000000000000000000000000000000000000000000000000000008152600401610d1a90611ecd565b60405180910390fd5b80600101543414610d69576040517f08c379a0000000000000000000000000000000000000000000000000000000008152600401610d6090612350565b60405180910390fd5b8060070160003373ffffffffffffffffffffffffffffffffffffffff1673ffffffffffffffffffffffffffffffffffffffff16815260200190815260200160002060009054906101000a900460ff1615610df8576040517f08c379a0000000000000000000000000000000000000000000000000000000008152600401610def906123bc565b60405180910390fd5b7ffffffffffffffffffffffffffffffffffffffffffffffffffffffffffffffffd600260003373ffffffffffffffffffffffffffffffffffffffff1673ffffffffffffffffffffffffffffffffffffffff168152602001908152602001600020541215610e9a576040517f08c379a0000000000000000000000000000000000000000000000000000000008152600401610e9190612428565b60405180910390fd5b60018160070160003373ffffffffffffffffffffffffffffffffffffffff1673ffffffffffffffffffffffffffffffffffffffff16815260200190815260200160002060006101000a81548160ff02191690831515021790555080600601339080600181540180825580915050600190039060005260206000200160009091909190916101000a81548173ffffffffffffffffffffffffffffffffffffffff021916908373ffffffffffffffffffffffffffffffffffffffff1602179055506001816002016000828254610f6e9190612448565b9250508190555034816003016000828254610f899190612448565b925050819055503373ffffffffffffffffffffffffffffffffffffffff16827f03dfbe1fcb4e2d61f3b4a0c93d8f814c92250618b3387f396cc9fc9fafe2c20334604051610fd79190611ae6565b60405180910390a35050565b60008060008481526020019081526020016000209050600073ffffffffffffffffffffffffffffffffffffffff168160000160009054906101000a900473ffffffffffffffffffffffffffffffffffffffff1673ffffffffffffffffffffffffffffffffffffffff160361108c576040517f08c379a000000000000000000000000000000000000000000000000000000000815260040161108390611d89565b60405180910390fd5b8060050160009054906101000a900460ff166110dd576040517f08c379a00000000000000000000000000000000000000000000000000000000081526004016110d490611e61565b60405180910390fd5b8060050160019054906101000a900460ff161561112f576040517f08c379a000000000000000000000000000000000000000000000000000000000815260040161112690611ecd565b60405180910390fd5b8060070160003373ffffffffffffffffffffffffffffffffffffffff1673ffffffffffffffffffffffffffffffffffffffff16815260200190815260200160002060009054906101000a900460ff166111bd576040517f08c379a00000000000000000000000000000000000000000000000000000000081526004016111b4906124c8565b60405180910390fd5b8060070160008373ffffffffffffffffffffffffffffffffffffffff1673ffffffffffffffffffffffffffffffffffffffff16815260200190815260200160002060009054906101000a900460ff1661124b576040517f08c379a000000000000000000000000000000000000000000000000000000000815260040161124290612534565b60405180910390fd5b8060080160003373ffffffffffffffffffffffffffffffffffffffff1673ffffffffffffffffffffffffffffffffffffffff16815260200190815260200160002060009054906101000a900460ff16156112da576040517f08c379a00000000000000000000000000000000000000000000000000000000081526004016112d1906125a0565b60405180910390fd5b60018160080160003373ffffffffffffffffffffffffffffffffffffffff1673ffffffffffffffffffffffffffffffffffffffff16815260200190815260200160002060006101000a81548160ff021916908315150217905550818160090160003373ffffffffffffffffffffffffffffffffffffffff1673ffffffffffffffffffffffffffffffffffffffff16815260200190815260200160002060006101000a81548173ffffffffffffffffffffffffffffffffffffffff021916908373ffffffffffffffffffffffffffffffffffffffff160217905550600181600a0160008473ffffffffffffffffffffffffffffffffffffffff1673ffffffffffffffffffffffffffffffffffffffff16815260200190815260200160002060008282546114069190612448565b9250508190555060018160040160008282546114229190612448565b925050819055508173ffffffffffffffffffffffffffffffffffffffff163373ffffffffffffffffffffffffffffffffffffffff16847fcfff1651bcea794952a516ce970ab17518a85210bd939aaeaac670a8d3e65ec760405160405180910390a4505050565b60026020528060005260406000206000915090505481565b60008082116114e5576040517f08c379a00000000000000000000000000000000000000000000000000000000081526004016114dc9061260c565b60405180910390fd5b600154905060018060008282546114fc9190612448565b9250508190555060008060008381526020019081526020016000209050338160000160006101000a81548173ffffffffffffffffffffffffffffffffffffffff021916908373ffffffffffffffffffffffffffffffffffffffff1602179055508281600101819055503373ffffffffffffffffffffffffffffffffffffffff16827fac131287fe8417903d89f4eb472bc1d0da81641ef725569346dab6c2879a6717856040516115ac9190611ae6565b60405180910390a350919050565b60036020528060005260406000206000915054906101000a900460ff1681565b7ffffffffffffffffffffffffffffffffffffffffffffffffffffffffffffffffd81565b60005b82600201548110156119df5760008360060182815481106116255761162461262c565b5b9060005260206000200160009054906101000a900473ffffffffffffffffffffffffffffffffffffffff1690508360080160008273ffffffffffffffffffffffffffffffffffffffff1673ffffffffffffffffffffffffffffffffffffffff16815260200190815260200160002060009054906101000a900460ff166116ab57506119d2565b60008460090160008373ffffffffffffffffffffffffffffffffffffffff1673ffffffffffffffffffffffffffffffffffffffff16815260200190815260200160002060009054906101000a900473ffffffffffffffffffffffffffffffffffffffff16905060008473ffffffffffffffffffffffffffffffffffffffff168273ffffffffffffffffffffffffffffffffffffffff1614905080156117ff576001600260008573ffffffffffffffffffffffffffffffffffffffff1673ffffffffffffffffffffffffffffffffffffffff168152602001908152602001600020600082825461179a919061265b565b925050819055506000600360008573ffffffffffffffffffffffffffffffffffffffff1673ffffffffffffffffffffffffffffffffffffffff16815260200190815260200160002060006101000a81548160ff021916908360ff1602179055506119ce565b60006001600360008673ffffffffffffffffffffffffffffffffffffffff1673ffffffffffffffffffffffffffffffffffffffff16815260200190815260200160002060009054906101000a900460ff1661185a919061269f565b905080600360008673ffffffffffffffffffffffffffffffffffffffff1673ffffffffffffffffffffffffffffffffffffffff16815260200190815260200160002060006101000a81548160ff021916908360ff16021790555060028160ff161061197457600a600260008673ffffffffffffffffffffffffffffffffffffffff1673ffffffffffffffffffffffffffffffffffffffff168152602001908152602001600020600082825461190f91906126d4565b925050819055506000600360008673ffffffffffffffffffffffffffffffffffffffff1673ffffffffffffffffffffffffffffffffffffffff16815260200190815260200160002060006101000a81548160ff021916908360ff1602179055506119cc565b6001600260008673ffffffffffffffffffffffffffffffffffffffff1673ffffffffffffffffffffffffffffffffffffffff16815260200190815260200160002060008282546119c491906126d4565b925050819055505b505b5050505b8080600101915050611601565b505050565b600082825260208201905092915050565b7f64697265637420455448207472616e7366657273206e6f7420616c6c6f776564600082015250565b6000611a2b6020836119e4565b9150611a36826119f5565b602082019050919050565b60006020820190508181036000830152611a5a81611a1e565b9050919050565b7f756e6b6e6f776e2066756e6374696f6e00000000000000000000000000000000600082015250565b6000611a976010836119e4565b9150611aa282611a61565b602082019050919050565b60006020820190508181036000830152611ac681611a8a565b9050919050565b6000819050919050565b611ae081611acd565b82525050565b6000602082019050611afb6000830184611ad7565b92915050565b600080fd5b611b0f81611acd565b8114611b1a57600080fd5b50565b600081359050611b2c81611b06565b92915050565b600073ffffffffffffffffffffffffffffffffffffffff82169050919050565b6000611b5d82611b32565b9050919050565b611b6d81611b52565b8114611b7857600080fd5b50565b600081359050611b8a81611b64565b92915050565b60008060408385031215611ba757611ba6611b01565b5b6000611bb585828601611b1d565b9250506020611bc685828601611b7b565b9150509250929050565b600060208284031215611be657611be5611b01565b5b6000611bf484828501611b1d565b91505092915050565b611c0681611b52565b82525050565b60008115159050919050565b611c2181611c0c565b82525050565b600061010082019050611c3d600083018b611bfd565b611c4a602083018a611ad7565b611c576040830189611ad7565b611c646060830188611ad7565b611c716080830187611ad7565b611c7e60a0830186611c18565b611c8b60c0830185611c18565b611c9860e0830184611bfd565b9998505050505050505050565b600060208284031215611cbb57611cba611b01565b5b6000611cc984828501611b7b565b91505092915050565b6000819050919050565b611ce581611cd2565b82525050565b6000602082019050611d006000830184611cdc565b92915050565b600060ff82169050919050565b611d1c81611d06565b82525050565b6000602082019050611d376000830184611d13565b92915050565b7f726f6f6d20646f6573206e6f7420657869737400000000000000000000000000600082015250565b6000611d736013836119e4565b9150611d7e82611d3d565b602082019050919050565b60006020820190508181036000830152611da281611d66565b9050919050565b7f6f6e6c792063726561746f722063616e2066696e616c697a6500000000000000600082015250565b6000611ddf6019836119e4565b9150611dea82611da9565b602082019050919050565b60006020820190508181036000830152611e0e81611dd2565b9050919050565b7f726f6f6d206e6f74207374617274656400000000000000000000000000000000600082015250565b6000611e4b6010836119e4565b9150611e5682611e15565b602082019050919050565b60006020820190508181036000830152611e7a81611e3e565b9050919050565b7f726f6f6d20616c726561647920736574746c6564000000000000000000000000600082015250565b6000611eb76014836119e4565b9150611ec282611e81565b602082019050919050565b60006020820190508181036000830152611ee681611eaa565b9050919050565b7f6e6f20706c617965727300000000000000000000000000000000000000000000600082015250565b6000611f23600a836119e4565b9150611f2e82611eed565b602082019050919050565b60006020820190508181036000830152611f5281611f16565b9050919050565b7f77696e6e6572206d757374206265206120706c61796572000000000000000000600082015250565b6000611f8f6017836119e4565b9150611f9a82611f59565b602082019050919050565b60006020820190508181036000830152611fbe81611f82565b9050919050565b7f6e6f20766f746573206361737400000000000000000000000000000000000000600082015250565b6000611ffb600d836119e4565b915061200682611fc5565b602082019050919050565b6000602082019050818103600083015261202a81611fee565b9050919050565b7f4e487b7100000000000000000000000000000000000000000000000000000000600052601160045260246000fd5b600061206b82611acd565b915061207683611acd565b925082820261208481611acd565b9150828204841483151761209b5761209a612031565b5b5092915050565b7f6e6f20737472696374206d616a6f726974790000000000000000000000000000600082015250565b60006120d86012836119e4565b91506120e3826120a2565b602082019050919050565b60006020820190508181036000830152612107816120cb565b9050919050565b600081905092915050565b50565b600061212960008361210e565b915061213482612119565b600082019050919050565b600061214a8261211c565b9150819050919050565b7f7061796f7574206661696c656400000000000000000000000000000000000000600082015250565b600061218a600d836119e4565b915061219582612154565b602082019050919050565b600060208201905081810360008301526121b98161217d565b9050919050565b7f6f6e6c792063726561746f722063616e20737461727400000000000000000000600082015250565b60006121f66016836119e4565b9150612201826121c0565b602082019050919050565b60006020820190508181036000830152612225816121e9565b9050919050565b7f726f6f6d20616c72656164792073746172746564000000000000000000000000600082015250565b60006122626014836119e4565b915061226d8261222c565b602082019050919050565b6000602082019050818103600083015261229181612255565b9050919050565b7f6e656564206174206c65617374203220706c6179657273000000000000000000600082015250565b60006122ce6017836119e4565b91506122d982612298565b602082019050919050565b600060208201905081810360008301526122fd816122c1565b9050919050565b7f696e636f7272656374206275792d696e20616d6f756e74000000000000000000600082015250565b600061233a6017836119e4565b915061234582612304565b602082019050919050565b600060208201905081810360008301526123698161232d565b9050919050565b7f616c7265616479206a6f696e6564000000000000000000000000000000000000600082015250565b60006123a6600e836119e4565b91506123b182612370565b602082019050919050565b600060208201905081810360008301526123d581612399565b9050919050565b7f72657075746174696f6e20746f6f206c6f770000000000000000000000000000600082015250565b60006124126012836119e4565b915061241d826123dc565b602082019050919050565b6000602082019050818103600083015261244181612405565b9050919050565b600061245382611acd565b915061245e83611acd565b925082820190508082111561247657612475612031565b5b92915050565b7f6f6e6c7920706c61796572732063616e20766f74650000000000000000000000600082015250565b60006124b26015836119e4565b91506124bd8261247c565b602082019050919050565b600060208201905081810360008301526124e1816124a5565b9050919050565b7f63616e646964617465206d757374206265206120706c61796572000000000000600082015250565b600061251e601a836119e4565b9150612529826124e8565b602082019050919050565b6000602082019050818103600083015261254d81612511565b9050919050565b7f616c726561647920766f74656400000000000000000000000000000000000000600082015250565b600061258a600d836119e4565b915061259582612554565b602082019050919050565b600060208201905081810360008301526125b98161257d565b9050919050565b7f6275792d696e206d757374206265203e20300000000000000000000000000000600082015250565b60006125f66012836119e4565b9150612601826125c0565b602082019050919050565b60006020820190508181036000830152612625816125e9565b9050919050565b7f4e487b7100000000000000000000000000000000000000000000000000000000600052603260045260246000fd5b600061266682611cd2565b915061267183611cd2565b92508282019050828112156000831216838212600084121516171561269957612698612031565b5b92915050565b60006126aa82611d06565b91506126b583611d06565b9250828201905060ff8111156126ce576126cd612031565b5b92915050565b60006126df82611cd2565b91506126ea83611cd2565b925082820390508181126000841216828213600085121516171561271157612710612031565b5b9291505056fea26469706673582212209b2ca90747fcb9f73a2d614e7a259419649f9a1fab0d018082791ae36153ad3564736f6c634300081c0033",
  "linkReferences": {},
  "deployedLinkReferences": {}
}